:020000040800F2
:1060000000FC0020E998000865990008F199000853
:106010005D9A00085F9A0008619A0008000000007D
:10602000000000000000000000000000639A00086B
:10603000659A000800000000679A0008679A000847
:106040003999000839990008859A0008399900089B
:106050003999000839990008DB9A0008E19A00088C
:10606000E79A0008ED9A0008F39A0008919A000850
:106070009D9A0008A99A0008B59A00083999000865
:1060800039990008399900083999000839990008A8
:106090003999000839990008F99A000839990008D7
:1060A0003999000839990008399900083999000888
:1060B0003999000839990008399900083999000878
:1060C000A59B0008B19B0008399900083999000880
:1060D000C19A0008D99A00088D9B000839990008D8
:1060E00039990008399B00086D9A00083999000811
:1060F0003999000839990008399900083999000838
:106100003999000839990008799A0008BD9B000860
:106110003999000839990008399900083999000817
:106120003999000839990008399900083999000807
:086130003999000839990008B3
:1061400010B5054C237833B9044B13B10448AFF3B1
:1061500000800123237010BDA00D0020000000006E
:1061600010BC020808B5034B1BB103490348AFF349
:10617000008008BD00000000A40D002010BC020833
:10618000034613F8012B002AFBD1181A0138704777
:1061900001F0FF01102A2BDB10F0070F08D010F8D8
:1061A000013B013A8B422DD010F0070F42B3F6D1DC
:1061B000F0B441EA012141EA014122F007047FF0F5
:1061C00000070023F0E80256083C85EA010586EA4C
:1061D000010685FA47F5A3FA87F586FA47F6A5FA88
:1061E00087F68EB9EED1F0BC01F0FF0102F0070294
:1061F00032B110F8013B013A83EA010313B1F8D13F
:106200000020704701387047002D06BF354603381F
:10621000073815F0010F07D1013015F4807F02BF58
:10622000013015F4C03F0130F0BC0138704700BFA9
:1062300010F8012B11F8013B012A28BF9A42F7D030
:10624000D01A704781F0004102E000BF83F00043A4
:1062500030B54FEA41044FEA430594EA050F08BF01
:1062600090EA020F1FBF54EA000C55EA020C7FEAC5
:10627000645C7FEA655C00F0E2804FEA5454D4EB42
:106280005555B8BF6D420CDD2C4480EA020281EA0C
:10629000030382EA000083EA010180EA020281EA44
:1062A0000303362D88BF30BD11F0004F4FEA013196
:1062B0004FF4801C4CEA113102D0404261EB4101A5
:1062C00013F0004F4FEA03334CEA133302D052422B
:1062D00063EB430394EA050F00F0A780A4F10104E7
:1062E000D5F1200E0DDB02FA0EFC22FA05F2801821
:1062F00041F1000103FA0EF2801843FA05F3594107
:106300000EE0A5F120050EF1200E012A03FA0EFC85
:1063100028BF4CF0020C43FA05F3C01851EBE371AF
:1063200001F0004507D54FF0000EDCF1000C7EEBCC
:1063300000006EEB0101B1F5801F1BD3B1F5001F0A
:106340000CD349085FEA30004FEA3C0C04F1010429
:106350004FEA445212F5800F80F09A80BCF1004F52
:1063600008BF5FEA500C50F1000041EB045141EAD4
:10637000050130BD5FEA4C0C404141EB0101013C9D
:1063800028BFB1F5801FE9D291F0000F04BF01468C
:106390000020B1FA81F308BF2033A3F10B03B3F15E
:1063A00020020CDA0C3208DD02F1140CC2F10C02EE
:1063B00001FA0CF021FA02F10CE002F11402D8BF4C
:1063C000C2F1200C01FA02F120FA0CFCDCBF41EA18
:1063D0000C019040E41AA2BF01EB0451294330BDE7
:1063E0006FEA04041F3C1CDA0C340EDC04F11404C4
:1063F000C4F1200220FA04F001FA02F340EA03009B
:1064000021FA04F345EA030130BDC4F10C04C4F1E0
:10641000200220FA02F001FA04F340EA03002946C0
:1064200030BD21FA04F0294630BD94F0000F83F40A
:10643000801306BF81F480110134013D4EE77FEAED
:10644000645C18BF7FEA655C29D094EA050F08BF39
:1064500090EA020F05D054EA000C04BF194610461A
:1064600030BD91EA030F1EBF0021002030BD5FEA5E
:10647000545C05D14000494128BF41F0004130BD86
:1064800014F580043CBF01F5801130BD01F00045DA
:1064900045F0FE4141F470014FF0000030BD7FEA4D
:1064A000645C1ABF194610467FEA655C1CBF0B4648
:1064B000024650EA013406BF52EA033591EA030F5F
:1064C00041F4002130BD00BF90F0000F04BF002157
:1064D000704730B54FF4806404F132044FF000058A
:1064E0004FF0000150E700BF90F0000F04BF002103
:1064F000704730B54FF4806404F1320410F0004569
:1065000048BF40424FF000013EE700BF42004FEA63
:10651000E2014FEA31014FEA02701FBF12F07F43E0
:1065200093F07F4F81F06051704732F07F4208BF97
:10653000704793F07F4F04BF41F40021704730B59E
:106540004FF4607401F0004521F000411CE700BFEA
:1065500050EA010208BF704730B54FF000050AE06D
:1065600050EA010208BF704730B511F0004502D56E
:10657000404261EB41014FF4806404F132045FEA70
:10658000915C3FF4D8AE4FF003025FEADC0C18BF19
:1065900003325FEADC0C18BF033202EBDC02C2F10B
:1065A000200300FA03FC20FA02F001FA03FE40EA9D
:1065B0000E0021FA02F11444BDE600BF70B54FF0A1
:1065C000FF0C4CF4E06C1CEA11541DBF1CEA13557F
:1065D00094EA0C0F95EA0C0F00F0DEF82C4481EAE7
:1065E000030621EA4C5123EA4C5350EA013518BF07
:1065F00052EA033541F4801143F4801338D0A0FBF4
:1066000002CE4FF00005E1FB02E506F00042E0FBA0
:1066100003E54FF00006E1FB03569CF0000F18BFA6
:106620004EF0010EA4F1FF04B6F5007F64F540744E
:1066300004D25FEA4E0E6D4146EB060642EAC621E1
:1066400041EA55514FEAC52040EA5E504FEACE2E4E
:10665000B4F1FD0C88BFBCF5E06F1ED8BEF1004F51
:1066600008BF5FEA500E50F1000041EB045170BDCD
:1066700006F0004646EA010140EA020081EA030111
:10668000B4EB5C04C2BFD4EB0C0541EA045170BD0D
:1066900041F480114FF0000E013C00F3AB8014F187
:1066A000360FDEBF002001F0004170BDC4F10004D0
:1066B000203C35DA0C341BDC04F11404C4F1200551
:1066C00000FA05F320FA04F001FA05F240EA0200AC
:1066D00001F0004221F0004110EBD37021FA04F6E2
:1066E00042EB06015EEA430E08BF20EAD37070BD9C
:1066F000C4F10C04C4F1200500FA04F320FA05F0FB
:1067000001FA04F240EA020001F0004110EBD370FC
:1067100041F100015EEA430E08BF20EAD37070BD6C
:10672000C4F1200500FA05F24EEA020E20FA04F345
:1067300001FA05F243EA020321FA04F001F00041F4
:1067400021FA04F220EA020000EBD3705EEA430E65
:1067500008BF20EAD37070BD94F0000F0FD101F094
:106760000046400041EB010111F4801F08BF013CCD
:10677000F7D041EA060195F0000F18BF704703F00B
:106780000046520043EB030313F4801F08BF013D92
:10679000F7D043EA0603704794EA0C0F0CEA13554E
:1067A00018BF95EA0C0F0CD050EA410618BF52EA08
:1067B0004306D1D181EA030101F000414FF000000E
:1067C00070BD50EA410606BF1046194652EA43061C
:1067D00019D094EA0C0F02D150EA013613D195EA90
:1067E0000C0F05D152EA03361CBF104619460AD1D8
:1067F00081EA030101F0004141F0FE4141F47001E2
:106800004FF0000070BD41F0FE4141F4780170BDD1
:1068100070B54FF0FF0C4CF4E06C1CEA11541DBF36
:106820001CEA135594EA0C0F95EA0C0F00F0A7F838
:10683000A4EB050481EA030E52EA03354FEA013165
:1068400000F088804FEA03334FF0805545EA131378
:1068500043EA12634FEA022245EA111545EA106540
:106860004FEA00260EF000419D4208BF964244F1D7
:10687000FD0404F5407402D25B084FEA3202B61AF6
:1068800065EB03055B084FEA32024FF480104FF4CA
:10689000002CB6EB020E75EB030E22BFB61A75463E
:1068A00040EA0C005B084FEA3202B6EB020E75EBD1
:1068B000030E22BFB61A754640EA5C005B084FEA39
:1068C0003202B6EB020E75EB030E22BFB61A754606
:1068D00040EA9C005B084FEA3202B6EB020E75EB11
:1068E000030E22BFB61A754640EADC0055EA060ED2
:1068F00018D04FEA051545EA16754FEA06164FEA15
:10690000C30343EA52734FEAC2025FEA1C1CC0D1C0
:1069100011F4801F0BD141EA00014FF000004FF04D
:10692000004CB6E711F4801F04BF01430020B4F10E
:10693000FD0C88BFBCF5E06F3FF6AFAEB5EB030CC6
:1069400004BFB6EB020C5FEA500C50F1000041EBC3
:10695000045170BD0EF0004E4EEA113114EB5C0490
:10696000C2BFD4EB0C0541EA045170BD41F4801163
:106970004FF0000E013C90E645EA060E8DE60CEA6B
:10698000135594EA0C0F08BF95EA0C0F3FF43BAF88
:1069900094EA0C0F0AD150EA01347FF434AF95EA3F
:1069A0000C0F7FF425AF104619462CE795EA0C0F23
:1069B00006D152EA03353FF4FDAE1046194622E7F0
:1069C00050EA410618BF52EA43067FF4C5AE50EACA
:1069D00041047FF40DAF52EA43057FF4EBAE12E7BA
:1069E0004FF0FF3C06E000BF4FF0010C02E000BF9B
:1069F0004FF0010C4DF804CD4FEA410C7FEA6C5C7E
:106A00004FEA430C18BF7FEA6C5C1BD001B050EA20
:106A1000410C0CBF52EA430C91EA030F02BF90EA0B
:106A2000020F0020704710F1000F91EA030F58BFCA
:106A3000994208BF90422CBFD8176FEAE37040F02C
:106A4000010070474FEA410C7FEA6C5C02D150EACA
:106A5000013C07D14FEA430C7FEA6C5CD6D152EA85
:106A6000033CD3D05DF8040B704700BF844610464A
:106A700062468C461946634600E000BF01B5FFF749
:106A8000B7FF002848BF10F1000F01BD4DF808ED19
:106A9000FFF7F4FF0CBF012000205DF808FB00BFEA
:106AA0004DF808EDFFF7EAFF34BF012000205DF844
:106AB00008FB00BF4DF808EDFFF7E0FF94BF012091
:106AC00000205DF808FB00BF4DF808EDFFF7CEFF92
:106AD00094BF012000205DF808FB00BF4DF808EDD1
:106AE000FFF7C4FF34BF012000205DF808FB00BFA2
:106AF0004FEA410C7FEA6C5C02D150EA013C0AD1BA
:106B00004FEA430C7FEA6C5C02D152EA033C02D1AB
:106B10004FF0000070474FF0010070474FEA41020C
:106B200012F5001215D211D56FF47873B3EB6252DF
:106B300012D94FEAC12343F0004343EA505311F006
:106B4000004F23FA02F018BF404270474FF0000098
:106B5000704750EA013005D111F0004008BF6FF0D6
:106B6000004070474FF00000704700BF4FEA4102FD
:106B7000B2F1E04324BFB3F5001CDCF1FE5C0DD99B
:106B800001F0004C4FEAC0024CEA5070B2F1004FE5
:106B900040EB830008BF20F00100704711F0804FE8
:106BA00021D113F13872BCBF01F00040704741F4AD
:106BB00080114FEA5252C2F11802C2F1200C10FAB1
:106BC0000CF320FA02F018BF40F001004FEAC12395
:106BD0004FEAD32303FA0CFC40EA0C0023FA02F339
:106BE0004FEA4303CCE77FEA625307D150EA01330F
:106BF0001EBF4FF0FE4040F44000704701F00040DF
:106C000040F0FE4040F40000704700BF80F00040BC
:106C100002E000BF81F0004142001FBF5FEA410374
:106C200092EA030F7FEA226C7FEA236C6AD04FEA74
:106C30001262D2EB1363C1BFD218414048404140B9
:106C4000B8BF5B42192B88BF704710F0004F40F46B
:106C5000000020F07F4018BF404211F0004F41F487
:106C6000000121F07F4118BF494292EA030F3FD053
:106C7000A2F1010241FA03FC10EB0C00C3F1200366
:106C800001FA03F100F0004302D5494260EB4000F5
:106C9000B0F5000F13D3B0F1807F06D340084FEA60
:106CA000310102F10102FE2A51D2B1F1004F40EB55
:106CB000C25008BF20F0010040EA030070474900BD
:106CC00040EB0000013A28BFB0F5000FEDD2B0FA5A
:106CD00080FCACF1080CB2EB0C0200FA0CF0AABF7D
:106CE00000EBC25052421843BCBFD040184370471B
:106CF00092F0000F81F4000106BF80F40000013221
:106D0000013BB5E74FEA41037FEA226C18BF7FEAF7
:106D1000236C21D092EA030F04D092F0000F08BF39
:106D20000846704790EA010F1CBF0020704712F020
:106D30007F4F04D1400028BF40F00040704712F15F
:106D400000723CBF00F50000704700F0004343F0C4
:106D5000FE4040F4000070477FEA226216BF0846FA
:106D60007FEA23630146420206BF5FEA412390EABD
:106D7000010F40F4800070474FF0000304E000BFB3
:106D800010F0004348BF40425FEA000C08BF704764
:106D900043F0964301464FF000001CE050EA010228
:106DA00008BF70474FF000030AE000BF50EA01023D
:106DB00008BF704711F0004302D5404261EB41012A
:106DC0005FEA010C02BF84460146002043F0B6434F
:106DD00008BFA3F18053A3F50003BCFA8CF2083A74
:106DE000A3EBC25310DB01FA02FC634400FA02FC7D
:106DF000C2F12002BCF1004F20FA02F243EB020084
:106E000008BF20F00100704702F1200201FA02FCE5
:106E1000C2F1200250EA4C0021FA02F243EB0200D8
:106E200008BF20EADC7070474FF0FF0C1CEAD0521C
:106E30001EBF1CEAD15392EA0C0F93EA0C0F6FD0DD
:106E40001A4480EA010C400218BF5FEA41211ED0BB
:106E50004FF0006343EA501043EA5111A0FB0131A7
:106E60000CF00040B1F5000F3EBF490041EAD3717C
:106E70005B0040EA010062F17F02FD2A1DD8B3F1F8
:106E8000004F40EBC25008BF20F00100704790F067
:106E9000000F0CF0004C08BF49024CEA502040EAB9
:106EA00051207F3AC2BFD2F1FF0340EAC25070477F
:106EB00040F400004FF00003013A5DDC12F1190FBD
:106EC000DCBF00F000407047C2F10002410021FA2F
:106ED00002F1C2F1200200FA02FC5FEA310040F147
:106EE000000053EA4C0308BF20EADC70704792F0C0
:106EF000000F00F0004C02BF400010F4000F013AF8
:106F0000F9D040EA0C0093F0000F01F0004C02BFF2
:106F1000490011F4000F013BF9D041EA0C018FE761
:106F20000CEAD15392EA0C0F18BF93EA0C0F0AD067
:106F300030F0004C18BF31F0004CD8D180EA01008D
:106F400000F00040704790F0000F17BF90F0004F26
:106F5000084691F0000F91F0004F14D092EA0C0F08
:106F600001D142020FD193EA0C0F03D14B0218BF9B
:106F7000084608D180EA010000F0004040F0FE40E1
:106F800040F40000704740F0FE4040F4400070477D
:106F90004FF0FF0C1CEAD0521EBF1CEAD15392EAFC
:106FA0000C0F93EA0C0F69D0A2EB030280EA010CEC
:106FB00049024FEA402037D04FF0805343EA111185
:106FC00043EA10130CF000408B4238BF5B0042F1E3
:106FD0007D024FF4000C8B4224BF5B1A40EA0C0088
:106FE000B3EB510F24BFA3EB510340EA5C00B3EBBA
:106FF000910F24BFA3EB910340EA9C00B3EBD10FA8
:1070000024BFA3EBD10340EADC001B0118BF5FEAF9
:107010001C1CE0D1FD2A3FF650AF8B4240EBC25022
:1070200008BF20F0010070470CF0004C4CEA5020E3
:107030007F32C2BFD2F1FF0340EAC250704740F432
:1070400000004FF00003013A37E792F0000F00F024
:10705000004C02BF400010F4000F013AF9D040EAA2
:107060000C0093F0000F01F0004C02BF490011F436
:10707000000F013BF9D041EA0C0195E70CEAD1532E
:1070800092EA0C0F08D142027FF47DAF93EA0C0F15
:107090007FF470AF084676E793EA0C0F04D14B02F9
:1070A0003FF44CAF08466EE730F0004C18BF31F0AB
:1070B000004CCAD130F000427FF45CAF31F00043A5
:1070C0007FF43CAF5FE700BF4FF0FF3C06E000BF3E
:1070D0004FF0010C02E000BF4FF0010C4DF804CD61
:1070E0004FEA40024FEA41037FEA226C18BF7FEA71
:1070F000236C11D001B052EA530C18BF90EA010F73
:1071000058BFB2EB030088BFC81738BF6FEAE17001
:1071100018BF40F0010070477FEA226C02D15FEA9D
:10712000402C05D17FEA236CE4D15FEA412CE1D009
:107130005DF8040B704700BF844608466146FFE7D0
:107140000FB5FFF7C9FF002848BF10F1000F0FBDB2
:107150004DF808EDFFF7F4FF0CBF012000205DF8AB
:1071600008FB00BF4DF808EDFFF7EAFF34BF012030
:1071700000205DF808FB00BF4DF808EDFFF7E0FFC9
:1071800094BF012000205DF808FB00BF4DF808ED1A
:10719000FFF7D2FF94BF012000205DF808FB00BF7D
:1071A0004DF808EDFFF7C8FF34BF012000205DF85F
:1071B00008FB00BF53B94AB9002908BF00281CBF0B
:1071C0004FF0FF314FF0FF3000F06CB9ADF1080C1B
:1071D0006DE904CE00F006F8DDF804E0DDE90223F5
:1071E00004B070472DE9F047089E0D4604468E46D0
:1071F000002B40F082808A42174646D9B2FA82F2CA
:107200004AB1C2F1200105FA02F320FA01F19740D8
:1072100041EA030E94404FEA1748230CBEFBF8FCEA
:10722000B9B208FB1CEE43EA0E430CFB01F0984296
:107230000AD9FB180CF1FF3580F01681984240F214
:107240001381ACF1020C3B441B1AA4B2B3FBF8F05F
:1072500008FB103344EA034400FB01F1A14209D9C1
:107260003C1900F1FF3380F00181A14240F2FE8021
:1072700002383C44641A40EA0C4000211EB1D4405C
:107280000023C6E90043BDE8F08702B9FFDEB2FA89
:1072900082F2002A4FD1CB1B4FEA174E1FFA87F814
:1072A0000121B3FBFEFC250C0EFB1C3345EA034514
:1072B00008FB0CF3AB4207D97D190CF1FF3002D269
:1072C000AB4200F2E7808446ED1AA3B2B5FBFEF0B4
:1072D0000EFB105543EA054408FB00F8A04507D90A
:1072E0003C1900F1FF3302D2A04500F2D7801846C6
:1072F000A4EB080440EA0C40C0E78B4208D9002EFA
:1073000000F0AF800021C6E900050846BDE8F0871F
:10731000B3FA83F100294BD1AB4202D3824200F28F
:10732000B780841A65EB030301209E46002EAAD085
:10733000C6E9004EA7E7C2F1200C01FA02F397401C
:1073400020FA0CF04FEA174E21FA0CFC1843BCFB54
:10735000FEF1050C0EFB11CC1FFA87F845EA0C452F
:1073600001FB08F3AB4204FA02F409D97D1901F1DB
:10737000FF3C80F08B80AB4240F2888002393D4474
:10738000EB1A85B2B3FBFEF00EFB103345EA034562
:1073900000FB08F3AB4207D97D1900F1FF3C71D225
:1073A000AB426FD902383D44EB1A40EA014178E71D
:1073B000C1F1200C8B4022FA0CF71F4320FA0CF489
:1073C00005FA01F34FEA174E25FA0CF51C43230C7E
:1073D000B5FBFEF91FFA87F80EFB195543EA054580
:1073E00009FB08FAAA4502FA01F200FA01F308D9EA
:1073F0007D1909F1FF3047D2AA4545D9A9F1020903
:107400003D44A5EB0A05A4B2B5FBFEF00EFB1055FA
:1074100044EA054400FB08F8A04507D93C1900F1EF
:10742000FF352DD2A0452BD902383C4440EA094013
:10743000A4EB0804A0FB02894C45C6464D4619D36F
:1074400016D05EB1B3EB0E0264EB050404FA0CFC3B
:10745000CA404CEA0202CC40C6E900240021BDE843
:10746000F087314630460EE7AC46EDE6184601E7B8
:107470004345E6D2B8EB020E69EB07050138E0E7B9
:107480002846D3E760468FE78146BAE7614677E74B
:1074900008464BE7ACF1020C3D4415E702383C448A
:1074A00026E700BF704700BF7047704703F09EB8E3
:1074B00003F0A1B870474FF0B04382B0DA6C42F0ED
:1074C0000102DA64DB6C03F001030193019B02B05B
:1074D000704770B586B01422002101A800F01AFB95
:1074E0000024FFF7E8FF0125FFF7E5FF032301A9CB
:1074F0004FF09040CDE903430226CDE901550FF04E
:1075000067FC01A94FF0904001960FF061FC224604
:1075100031464FF090400FF07BFD224629464FF058
:1075200090400FF075FD204606B070BD032810B5E1
:107530000ED8012811D868B9024601214FF09040B9
:107540000FF066FD002202214FF090400FF060FD29
:10755000002010BD01221146F0E7002201214FF06A
:1075600090400FF055FD0122EDE702207047012009
:1075700070470120704710B59AB04822002108A832
:1075800000F0C8FA1822002102A800F0C3FA10F097
:10759000FBFB4FF0B0420024D2F8903023F01803E8
:1075A000C2F89030D2F8003423F4C06343F400737F
:1075B000C2F80034D2F80034119403F4C06301938C
:1075C0004FF48072019B0C922E234022089381235A
:1075D0000B930D920123B02208A8CDE90E3410932D
:1075E0001292139410F022FD08B103F01DFA4F23FC
:1075F000022102A8CDE90234CDE90444CDE90644D4
:1076000010F0B4FF08B103F00FFA1AB010BD00007B
:1076100013B50378082B11D8DFE803F01282871026
:107620008E8E05109200047920460BF0C3FF204691
:107630000BF094FF002120460BF0C4FF02B010BDF8
:1076400000200BF0B7FF012839D101200BF0B2FF69
:10765000012804D001200DF095FC00283DDC02201B
:107660000BF0A8FF0128E9D002200DF08BFC0028C8
:10767000E4DD012201A902200DF08AFB02200BF0BB
:1076800099FF0028F0D102200DF076FC00283FD1B0
:107690009DF8041002200BF0CDFEE5E7012201A9C0
:1076A00000200DF075FB00200BF084FF044630B97C
:1076B0000DF062FC48B99DF804100BF0BBFE0020F1
:1076C0000DF060FC0028E9DCBFE70128F7D19DF848
:1076D000041020460DF0A8FBF1E7012201A9104695
:1076E0000DF056FB01200BF065FF0028B2D1012000
:1076F0000DF042FC28B99DF8041001200BF09AFE11
:10770000A8E70128A6D19DF804100DF08DFBA1E794
:107710000128A9D19DF8041002200DF085FBA3E7F4
:1077200015F0B6FF04F0E6FD88E7074B1B68002B59
:1077300084D04068984781E740680DF0BDFC7DE744
:1077400040680DF0ADF979E74C64002030B5284B66
:10775000284A9A6085B00DF0E3FCFFF70CFF4FF06C
:10776000B0430B209A6C42F004029A649A6C02F0C7
:1077700004020392039A9A6C42F001029A649B6C91
:10778000002203F0010311460293029B0EF01EF942
:107790000B200EF04DF90DF083FC0CF0E9FF0BF01F
:1077A000C3FF002401460546234603220120CDE9FC
:1077B00000440DF02FFA2346032229460220CDE98A
:1077C00000440DF027FA0CF05DF805F0C3FBE5B2BC
:1077D00028460BF0EFFE10B928460BF0BFFE01342F
:1077E000032CF4D105B0BDE830400DF03FBC00BF24
:1077F00000ED00E000600008F7B5FFF7A7FF224E9C
:10780000224C07F0A5FD224B341B142747430025CB
:107810001C44BD4216D321F0A6FE1E480DF07CFA92
:1078200003F0ACFF012822D0022822D010B91A4858
:107830000DF072FA194C0DF027FC2378DBB921F01A
:1078400094FEF8E701AA042160190CF0E3FF01A9F6
:107850003246042312F801CB11F8010B844518BFFE
:1078600002F8010C013BF5D104350436D1E70C4890
:10787000DEE70C48DCE70BF0E3FE0028DBD000205D
:107880000DF092F9D7E700BF34030020000000207C
:1078900030F102087CBD020890BD0208BC0D00203A
:1078A0009CBD0208A7BD0208054808B5082303606F
:1078B00011F02AFA18B1BDE8084003F0B5B808BDC8
:1078C000E85C00204FF0B04307B55A6E42F0010269
:1078D0005A665B6E002203F00103019311463220C9
:1078E000019B0EF073F8322003B05DF804EB0EF04C
:1078F0009FB80000024B9868024BC0431860704765
:1079000000280040C00D0020014B1868704700BFE0
:10791000C00D0020034B044A9B681068DB43181A13
:10792000704700BF00280040C00D0020034B1878AE
:1079300010B1034B9868C043704700BFBD0D0020D5
:10794000002800400320704708B501464FF47A72C2
:107950000023C003490CFFF72DFC08BD4FF47A72D9
:10796000A0FB0223D00B40EA4340704710B5074B01
:10797000074C0122DA654FF48071204610F0F4FEC6
:107980004FF0FF332363002010BD00BF00280040EC
:10799000345F002002460021014811F0FAB800BF10
:1079A000345F002002460121014811F0F2B800BF07
:1079B000345F002010B58CB02C220021044601A8B1
:1079C00000F0A8F8FFF7D2FF0C4B1868002304441E
:1079D000089306934FF00053E4430793084802943A
:1079E0004FF48073012201A90B9310F0D3FF08B16B
:1079F00003F01AF800200CB010BD00BFC00D00202D
:107A0000345F00200C4B70B59C68064602210B4881
:107A100011F0C6F8E44300221219C2F30E044FF429
:107A20007A71A4FB014540F10003E40BD00B3480D4
:107A300040EA434070BD00BF00280040345F002092
:107A40000148002111F0ACB8345F00200148012149
:107A500011F0A6B8345F0020F8B5114E3578E5B9BD
:107A6000104C2A4629464FF0FF372846276302F07C
:107A700035FDFFF77BFF4FF48071204610F074FE58
:107A80002046276311F030F82A460221204611F0E3
:107A900080F8FFF72FFF012333700020F8BD00BFEF
:107AA000BD0D0020345F002014F0B2BB10B5064CB1
:107AB0000221204611F074F80221421C2046BDE844
:107AC000104011F066B800BF345F002070B50D4D56
:107AD0000D4C641BA4100026A64209D10B4D0C4C82
:107AE00024F096F8641BA4100026A64205D170BDB0
:107AF00055F8043B98470136EEE755F8043B9847A4
:107B00000136F2E720F1020820F1020820F1020814
:107B100024F1020802440346934200D1704703F85F
:107B2000011BF9E72DE9F04788B0002B1F461446EA
:107B3000B8BF03F10043129A109DDDF84CA0B6BF08
:107B40001F4600232D231370149B23F02008B8F147
:107B5000460F05D0B8F1450F00D10135022300E0F2
:107B6000032307AA049206AACDE902A2CDE90035B3
:107B700022463B4600F0C0FCB8F1470F064602D152
:107B8000119BDB0722D5B8F1460F06EB050910D192
:107B90003378302B0AD10022002320463946FEF7E5
:107BA00075FF18B9C5F10105CAF80050DAF80030C0
:107BB00099440022002320463946FEF767FF08B1AA
:107BC000CDF81C903022079B4B4507D3079B159A95
:107BD0009B1B3046136008B0BDE8F087591C079125
:107BE0001A70F0E7F7B503460029B8BF494203F819
:107BF000022BB4BF2D222B22092942702ADD0DF160
:107C00000704A4460A27A6460A4691FBF7F607FB97
:107C100016153035632A04F1FF340EF8015C314645
:107C2000F1DC3031AEF1020504F8011C441C294698
:107C300061450AD30DF10902A2EB0E02654588BF2A
:107C400000221344181A03B0F0BD11F8012B04F8F8
:107C5000012FEDE7302330318370C170031DF1E750
:107C60002DE9F04F91B00C46DDF8688016461F46AE
:107C7000054601F013FA036809931846FEF780FAE7
:107C800000230E93D8F800300A90073323F007033F
:107C900003F1080294F81890D4F800B0C8F8002056
:107CA000D3E90023C4E91223D4E9128A2AF000435D
:107CB0000B930B999C4B4FF0FF324046FEF718FF99
:107CC00070BB994B0B994FF0FF324046FEF7F2FE26
:107CD00030BB0022002340465146FEF7E1FE10B1C2
:107CE0002D2384F84330914B9148B9F1470F94BF4D
:107CF00098468046032323612BF0040323604FF052
:107D0000000A009733460FAA2146284600F0D2F910
:107D1000013040F08F804FF0FF3011B0BDE8F08FA0
:107D20004246534640465146FEF7E2FE40B1BAF1A4
:107D3000000FBCBF2D2384F843307E487E4BD4E730
:107D400063685A1C09F0DF0142D1062363600022F8
:107D500006920EAACDE904920DAA4BF48063039219
:107D60000DF13302CDE9013223606368009342468E
:107D7000534628460B91FFF7D5FE0B9947298046BD
:107D80000D9908D1C81C02DB6368994240DDA9F156
:107D900002095FFA89F9B9F1650F1FD801394A461E
:107DA00004F150000D91FFF71DFF0E9A1318012AE0
:107DB0008246236102DC2268D20701D501332361A8
:107DC0009DF83330002B9CD02D2384F8433098E766
:107DD0004729BCD1002BBAD10123B7E7B9F1660F0F
:107DE00018D1002963680BDD216113B92268D0071F
:107DF00002D501330B442361A1654FF0000ADFE790
:107E000013B92268D20701D50233F4E70123F2E760
:107E10004FF067090E9B994205DB23682161D80763
:107E2000EAD54B1CE7E70029D4BFC1F102020122C9
:107E30001344E0E723685A0507D4236942463146D4
:107E40002846B84701302BD165E7B9F1650F40F2FC
:107E5000DC80D4E9120100220023FEF717FE00287F
:107E600033D0364A012331462846B84701303FF423
:107E700052AFDDE90D239A4202DB2368D8070FD504
:107E8000DDE9092331462846B84701303FF443AFC6
:107E90004FF0000804F11A090E9B013B434509DC31
:107EA00023689B0700F10181E0680F9B9842B8BFEF
:107EB000184632E701234A4631462846B847013082
:107EC0003FF429AF08F10108E6E70D9B002B37DCF2
:107ED0001A4A012331462846B84701303FF41BAF08
:107EE000DDE90D23134302D12368D907D8D5DDE995
:107EF000092331462846B84701303FF40CAF4FF014
:107F0000000904F11A0A0D9B5B424B4501DC0E9BF4
:107F100094E70123524631462846B84701303FF4E2
:107F2000FAAE09F10109EEE7FFFFEF7FEFBE0208AD
:107F3000F3BE0208FBBE0208F7BE02086BEA0208A5
:107F40000E9AA36D9A42A8BF1A46002A914637DCC2
:107F50004FF0000B29EAE97904F11A02D4F858A08D
:107F6000AAEB09035B4533DCDDE90D239A423BDBD9
:107F70002368DA0738D40E9A0D99A2EB0A03A2EB14
:107F800001099945A8BF9946B9F1000F34DC4FF0BB
:107F9000000829EAE97904F11A0ADDE90D239B1AA0
:107FA000A3EB090343457FF77BAF012352463146DC
:107FB0002846B84701303FF4AEAE08F10108ECE7BF
:107FC0001346314642462846B8470130C0D1A2E6A2
:107FD0000123314628460B92B84701303FF49BAE4F
:107FE0000B9A0BF1010BB9E7DDE90923314628466D
:107FF000B8470130BFD18EE64B4608EB0A02314646
:108000002846B8470130C2D185E60E9A012A01DC24
:10801000DB0737D50123424631462846B8470130B1
:108020003FF479AEDDE9092331462846B8470130EF
:108030003FF471AED4E9120100220023FEF726FDC1
:10804000D8B90E9B08F10102013B31462846B847DA
:1080500001300ED15FE601234A4631462846B84733
:1080600001303FF458AE08F101080E9B013B434537
:10807000F1DC534604F15002E1E64FF0000804F150
:108080001A09F2E701234246DFE701234A46314657
:108090002846B84701303FF43EAE08F10108E368D6
:1080A0000F995B1A4345F0DCFEE64FF0000804F13F
:1080B0001909F4E72DE9F047164699468A680B69D5
:1080C000DDF820809342B8BF1346336091F8432017
:1080D00007460C460AB1013333602368990642BF54
:1080E000336802333360256815F0060506D104F1C4
:1080F000190AE36832689B1AAB4226DC94F84320E5
:10810000131E226818BF012392062BD404F14302E8
:1081100049463846C04701301ED02368E5683268BA
:1081200003F00603042B08BFAD1AA36822690CBF35
:1081300025EAE57500259342C4BF9B1AED18002679
:108140001A34B5421AD1002008E0012352464946AC
:108150003846C047013003D14FF0FF30BDE8F0870B
:108160000135C6E7E1185A1C302081F8430022444B
:1081700094F8451082F843100233C7E701232246E2
:1081800049463846C0470130E6D00136D9E70000FD
:108190002DE9FF470C469146277E0C99782F8046A3
:1081A0009A4604F1430207D8622F0AD8002F00F044
:1081B000D880582F00F0A38004F1420684F8427062
:1081C0003AE0A7F16303152BF6D801A050F823F08D
:1081D000298200083D820008B9810008B9810008A1
:1081E000B9810008B98100083D820008B981000802
:1081F000B9810008B9810008B981000849830008E5
:108200006D8200082B830008B9810008B98100083D
:108210006B830008B98100086D820008B9810008ED
:10822000B9810008338300080B681A1D1B680A60B7
:1082300004F1420684F842300123A3E0256808686F
:108240002E0600F104030AD505680B60002D03DA41
:108250002D236D4284F843305E480A2319E015F05F
:10826000400F05680B6018BF2DB2EFE70B6825685B
:10827000181D0860280601D51D6802E06906FBD5B7
:108280001D8854486F2F0CBF08230A23002184F84F
:1082900043106668A660002EA2BF216821F0040189
:1082A00021600DB9002E4DD01646B5FBF3F103FB4E
:1082B0001157C75D06F8017D2F46BB420D46F4D924
:1082C000082B0BD12368DF0708D523696168994221
:1082D000DEBF302306F8013C06F1FF36921B226117
:1082E000CDF800A04B4603AA21464046FFF7E2FE28
:1082F00001304CD14FF0FF3004B0BDE8F087354875
:1083000084F8457023680E681F0656F8045B0E60FB
:1083100014D5D90744BF43F0200323601DB9236857
:1083200023F0200323601023B0E7236843F02003E9
:1083300023607823284884F84530E3E75E0648BF89
:10834000ADB2E6E71646BBE70B68266860691D1DFF
:108350000D6035061B6801D5186002E07106FBD57B
:108360001880002323611646BAE70B681A1D0A60BD
:108370001E68626800213046FDF70AFF08B1801BC5
:10838000606063682361002384F84330A8E72369B1
:10839000324649464046D0470130ABD023689B0760
:1083A00013D4E068039B9842B8BF1846A4E70123A2
:1083B000324649464046D04701309BD00135E368FC
:1083C00003995B1AAB42F2DCEBE7002504F11906D6
:1083D000F5E700BFFFBE020810BF02082DE9F74F06
:1083E00003690C69A3420746C0F28180013C01F198
:1083F000140800F1140505EB8403019358F82430A8
:1084000055F8242001339A424FEA840B08EB840983
:10841000B2FBF3F631D34FF0000E4046AC46F246C5
:1084200050F8042B93B206FB03E34FEA134E9BB2C2
:10843000AAEB0303120CDCF800A006FB02E213FA1D
:108440008AF34FEA124E1FFA82FADCF80020CAEBD8
:10845000124202EB23429BB243EA024381454CF8AD
:10846000043B4FEA224ADBD255F80B302BB9019B73
:10847000043B9D421A462ED33C61384601F051F828
:10848000002824DB013628464FF0000C58F8042B56
:10849000D0F800E093B2ACEB0303120C13FA8EF3A6
:1084A000C2EB1E4202EB23429BB243EA0243C145A8
:1084B00040F8043B4FEA224CE8D255F8242005EB63
:1084C000840322B9043B9D421A460AD33C613046DC
:1084D00003B0BDE8F08F1268043B002ACCD1013C08
:1084E000C7E71268043B002AF0D1013CEBE700200B
:1084F000EEE70000000000002DE9F04F446A99B05B
:1085000016461F46CDE90467DDF8948005463CB960
:10851000102000F0C7FDC0E9014468620460C46037
:108520006B6A196851B15A684A60012393408B60A5
:10853000284600F001FE6B6A00221A603B1EB9BF9C
:1085400023F0004305930023C8F80030DDF81490B1
:10855000A74BBCBF0122C8F8002033EA090319D198
:10856000249A42F20F731360C9F31303334300F0EC
:108570006D85269B53B99F4B23E09F4B0393083394
:10858000269A1360039819B0BDE8F08F994B0393B6
:108590000333F5E7DDE90434CDE90C34DDE90C0102
:1085A00000220023FEF772FA804660B1249A01236C
:1085B0001360269B002B00F04685904B269A136093
:1085C000013B0393DEE716AB019317AB00932846FC
:1085D000DDE90C2301F036F8C9F30A548346002C78
:1085E0007ED00D9BCDF84C80C3F31303DDE90C0165
:1085F00043F07F5141F44011A4F2FF34804B00223C
:10860000FDF724FE74A3D3E90023FDF7D7FF74A37D
:10861000D3E90023FDF71CFE064620460F46FDF772
:1086200063FF71A3D3E90023FDF7C8FF02460B46A1
:1086300030463946FDF70CFE06460F46FEF76EFA49
:1086400000228246002330463946FEF729FA48B117
:108650005046FDF749FF32463B46FEF717FA08B988
:108660000AF1FF3ABAF1160F57D8664B03EBCA036B
:10867000D3E90023DDE90C01FEF712FA00284ED001
:108680000AF1FF3A00230F93169B1C1B631E0993EC
:1086900045BFC4F101030693002300234CBF099397
:1086A0000693BAF1000F3CDB099BCDF838A0534488
:1086B000099300230A93229B092B00F2B580052B16
:1086C000C4BF043B2293229BA3F10203CCBF00242E
:1086D0000124032B00F2B480DFE803F02D987AA484
:1086E000DDE916431C4404F23243202BC3BFC3F11F
:1086F000400304F2124009FA03F3C3F12003C6BF9A
:1087000026FA00F0184306FA03F0FDF7DDFE012318
:10871000A1F1F871013C139370E70123B3E70F90C7
:10872000B2E7069BA3EB0A030693CAF100030A9380
:1087300000230E93BFE700230B93239B002B00F332
:1087400082804FF00109CDF820904B46CDF88C90F7
:108750006E6A00227260042202F11400984271686D
:1087600077D9284600F0B4FC6B6A30601B6803932D
:10877000089B0E2B00F2EE80002C00F0EB80BAF18B
:10878000000F7ADD1F4A0AF00F0302EBC303D3E99F
:1087900000341AF4807FCDE910344FEA2A145CD0FB
:1087A000194BDDE90C01D3E90823FEF731F8CDE9D7
:1087B000040104F00F040327134E002C4FD1DDE910
:1087C0001023DDE90401FEF723F8CDE904016EE092
:1087D0000123B1E7AFF3008061436F63A787D23F06
:1087E000B3C8608B288AC63FFB799F501344D33FA0
:1087F0000000F07F2ABF020821BF02086CEA0208CD
:108800000000F83F58BF020830BF020800230B9356
:10881000239B0AEB030909F10103012B0893B8BF5D
:10882000012395E70123F2E70124002322930B940F
:108830004FF0FF390022CDF820901223239287E7D2
:1088400001230B93F4E7DDF88C90CDF820904B4694
:108850007EE70131716052007EE70227ACE7E10755
:1088600008D5DDE91001D6E90023FDF7A7FECDE923
:1088700010010137641008369FE700F0A580CAF1A7
:108880000004A44BA44E04F00F0203EBC203D3E98F
:108890000023DDE90C01FDF791FECDE9040124116F
:1088A00000230227002C40F08480002B8DD10F9BE9
:1088B000002B00F08B80DDE90434CDE91034DDE9D4
:1088C0001001964B0022FEF7EBF800287ED0089BA3
:1088D000002B7BD0B9F1000F38DDDDE91001904BA2
:1088E0000022FDF76BFECDE904010AF1FF380137E4
:1088F0004C463846FDF7F8FDDDE90423FDF75EFE42
:10890000884B0022FDF7A4FCA1F15076CDE91001BF
:108910001196002C5DD1DDE90401834B0022FDF7A7
:1089200095FC02460B46CDE90423109A3346FEF728
:10893000D5F8002840F09782DDE90401109A06F18D
:108940000043FEF7ADF8002840F08B82DDE90C34DF
:10895000CDE90434179B002BC0F25181BAF10E0F00
:1089600000F34D816B4B03EBCA03D3E90034CDE92F
:108970000634239B002B80F2DB80089B002B00F346
:10898000D78040F06D82684B0022DDE90601FDF7DB
:1089900015FEDDE90423FEF797F8089C264600281B
:1089A00040F04382039F312307F8013B0AF1010A9B
:1089B0003FE2E20705D5D6E90023FDF7FFFD0137C9
:1089C0000123641008366DE7022770E7089CD04643
:1089D0008FE703994F4B214412910B9903EBC4038A
:1089E000DDE9106753E90223002946D04F490020F2
:1089F000FDF70EFF3B463246FDF728FCCDE910019E
:108A0000039FDDE90401FEF789F80446FDF76CFDDC
:108A100002460B46DDE90401FDF718FC303402463E
:108A20000B46CDE9042307F8014BDDE91023FEF7DF
:108A300037F8002865D1DDE9042338490020FDF727
:108A400005FCDDE91023FEF72BF8002840F0B68086
:108A5000129B9F423FF47AAFDDE91001304B0022B8
:108A6000FDF7ACFD2E4BCDE910010022DDE904013C
:108A7000FDF7A4FDCDE90401C3E730463946FDF713
:108A80009DFDCDE91001129B039C1493DDE90401C7
:108A9000FEF744F81590FDF727FD02460B46DDE989
:108AA0000401FDF7D3FB159B303304F8013B129B07
:108AB0009C4206460F464FF0000224D11B4BDDE9D5
:108AC0001001FDF7C5FB02460B4630463946FEF75E
:108AD00005F8002871D1DDE9102314490020FDF7C5
:108AE000B5FB02460B4630463946FDF7D9FF002854
:108AF0003FF42CAF149F7B1E149317F8013C302BCE
:108B0000F8D0C24649E0064BFDF758FDCDE9040117
:108B1000BCE700BF58BF020830BF02080000F03FAA
:108B20000000244000001C40000014400000E03F12
:108B3000DDE90489039FDDE9062340464946FDF748
:108B400067FEFDF7EBFF0446FDF7CEFCDDE90623EB
:108B5000FDF734FD04F130060B4602464946404617
:108B6000FDF774FB07F8016B039E089BBE1BB34225
:108B700038D102460B46FDF76BFBDDE90623804644
:108B80008946FDF7ABFF58BBDDE906234046494661
:108B9000FDF77CFF08B1E10722D42846594600F0D2
:108BA000CBFA00233B70249B0AF101001860269B3E
:108BB000002B3FF4E7AC1F60E4E427463B461F462A
:108BC00013F8012D392A07D1039A9A42F7D1039954
:108BD000302208F101080A701A7801321A7090E701
:108BE000D046EBE7A14B0022FDF7E8FC0022002372
:108BF00080468946FDF74AFF00289CD0CDE70B9AB6
:108C0000002A00F0CD80229A012A00F3AF80139A47
:108C1000002A00F0A78003F233430A9C069F069ABD
:108C20001A440692099A01211A442846099200F032
:108C300026FB0646002F0CDD099B002B09DDBB42FD
:108C4000069AA8BF3B46D21A0692099AFF1AD31A6F
:108C500009930A9BF3B10B9B002B00F0A580002C1D
:108C600010DD31462246284600F0AEFB5A4601464A
:108C70000646284600F00CFB59468046284600F080
:108C80005BFAC3460A9B1A1B04D05946284600F0DB
:108C90009BFB83460121284600F0F1FA0E9B002B36
:108CA000044640F383801A460146284600F08CFBB8
:108CB000229B012B04467CDD4FF00008236904EB66
:108CC0008303186900F08DFAC0F12000099B184455
:108CD00010F01F0000F08E80C0F12003042B40F341
:108CE0008780C0F11C00069B03440693099B034444
:108CF00007440993069B002B05DD59461A46284672
:108D000000F0B0FB8346099B002B05DD21461A4687
:108D1000284600F0A7FB04460F9B002B6CD0214691
:108D2000584600F0FEFB002866DA002359460A2266
:108D3000284600F018FA0B9B0AF1FF3A8346002BF5
:108D400000F08B81314600230A22284600F00BFAFE
:108D5000B9F1000F064600F39180229B022B40F3ED
:108D60008D8051E0169BC3F1360356E7089B5C1ECD
:108D70000A9BA342BFBF0A9B0A94E21A0E9BB6BF8E
:108D80009B181C1B0E93089BB8BF0024002BB9BF77
:108D9000069B089A069F089BBCBF9F1A00233EE7CC
:108DA0000A9C069F0B9E45E70A9A6EE7229B012BC1
:108DB00019DC049BBBB9059BC3F313039BB9059B4B
:108DC00023F000431B0D1B0583B1069B0133069363
:108DD000099B013309934FF001080E9B002B7FF490
:108DE0006DAF012072E74FF00008F6E79846F4E710
:108DF00080D018461C3076E7089B002B38DC229B7D
:108E0000022B35DDDDF82090B9F1000F0DD12146A0
:108E10004B460522284600F0A6F90146044658466E
:108E200000F07FFB00283FF7BDAD239B039F6FEA57
:108E3000030A4FF000082146284600F07DF9002E75
:108E40003FF4ABAEB8F1000F05D0B04503D04146BA
:108E5000284600F071F93146284600F06DF99CE68D
:108E600000242646E1E7C24626469BE50000244052
:108E70000B9BDDF82090002B00F0F680002F05DD25
:108E800031463A46284600F0EDFA0646B8F1000FA2
:108E900055D07168284600F01BF932690232074646
:108EA000920006F10C010C3000F004F90122394661
:108EB000284600F0D7FA039B01330893039B4B44E9
:108EC0000A93049B03F00103B04609930646089BEE
:108ED0002146013B58460493FFF780FA034630339E
:108EE0000690414658460B9300F01BFB32468146E4
:108EF0002146284600F030FBC2680B9B074602BBA8
:108F00000146584600F00DFB0B9B024639462846A9
:108F1000CDE90B3200F010F9229B0C9A089F43EA2E
:108F20000201099B0B430B9B0DD1392B29D0B9F1C1
:108F3000000F01DD069B3133049A13707BE7304646
:108F4000B9E70122E2E7B9F1000F06DB229941EA15
:108F50000909099959EA010120D1002AECDD594695
:108F600001222846089300F07DFA2146834600F04E
:108F7000D8FA0028089B02DCDED1DA07DCD5392BD1
:108F8000D8D1049A392313703B461F46013B17F88A
:108F9000012C392A50D001321A704CE7002A03DD27
:108FA000392BEED00133C7E7089A0A9902F8013C41
:108FB0008A422AD0594600230A22284600F0D3F8D4
:108FC000B04583464FF000034FF00A024146284661
:108FD00007D100F0C8F880460646089B0133089385
:108FE00075E700F0C0F83146804600230A22284683
:108FF00000F0B9F80646F0E7B9F1000F039ACCBFCC
:109000004F46012717444FF00008594601222846D1
:10901000089300F027FA2146834600F082FA0028E0
:10902000B2DC02D1089BDB07AED43B461F4613F8E7
:10903000012D302AFAD0FEE6039A9A42A5D10AF110
:10904000010A312379E7134BFFF7BBBA269B002BAC
:109050007FF493AA104BFFF7B4BAB9F1000F03DC09
:10906000229B022B3FF7D0AE039F21465846FFF7C5
:10907000B5F900F1300307F8013B039ABA1A91459C
:10908000BADD594600230A22284600F06CF88346D0
:10909000EBE700BF6BEA020821BF020800487047F7
:1090A00074010020024B0146186800F077BB00BF36
:1090B000200000200A44914200F1FF3300D17047A4
:1090C00010B511F8014B03F8014F9142F9D110BDD1
:1090D00070B5466A04460D463EB91020FFF7E2FF20
:1090E000C0E9016660620660C660666AF36883B1C3
:1090F000636ADB6853F82500B8B9012101FA05F667
:10910000721D9200204600F0ECFA60B1C0E90156F1
:109110000EE021220421204600F0E3FA636AF060A9
:10912000DB68002BE4D1002070BD026843F82520E5
:109130000023C0E90333F7E770B5466A05460C46DD
:109140003EB91020FFF7AEFFC0E901666862066015
:10915000C6603CB16B6A6268DB6853F8221021601C
:1091600043F8224070BD2DE9F0410E69074698464C
:109170000C4601F1140000230568A9B202FB01812D
:109180004FEA114C2D0C02FB05C589B2013301EBEE
:1091900005419E4240F8041B4FEA1548ECDCB8F14B
:1091A000000F1BD0A368B34212DC6168384601315E
:1091B000FFF78EFF2269023204F10C01054692008E
:1091C0000C30FFF777FF21463846FFF7B5FF2C46F6
:1091D00004EB86030136C3F8148026612046BDE8FF
:1091E000F081020C12040346CAB90304102013F0E4
:1091F0007F4F04BF1B02083013F0704F04BF1B01E8
:10920000043013F0404F04BF9B000230002B05DBFD
:1092100013F0804F00F1010008BF202070470020AC
:10922000E5E70368024613F007000BD0D90722D404
:10923000980749BF5B089B08012013605CBF13605F
:109240000220704799B209B91B0C102013F0FF0FD0
:1092500004BF1B0A0830190704BF1B090430990713
:1092600004BF9B080230D90703D45B0800F101005A
:1092700003D013607047002070472020704710B55E
:109280000C460121FFF724FF01224461026110BD59
:109290002DE9F04F15460A692B699A42B8BF0B4673
:1092A0000C46BCBF2C461D462769D5F81090A36814
:1092B000616807EB0906B342B8BF013185B0FFF71B
:1092C00007FF00F1140101EB86080B46002243451D
:1092D0001DD304F1140305F1140203EB870702EB1D
:1092E000890302933B1B153B23F00303043304F172
:1092F0001505AF4238BF04230193029B03929342AA
:1093000008D8002E5ADC066105B0BDE8F08F43F89E
:10931000042BDCE7B2F800A0BAF1000F24D004F16E
:10932000140E89464FF0000C5EF8045BD9F800B0CB
:10933000ABB21FFA8BFB0AFB03B34FEA154BD9F80C
:10934000005063444FEA154C0AFB0BC505EB13456F
:109350009BB243EA0543774549F8043B4FEA154C75
:10936000E2D8019B41F803C0039BB3F8029004329A
:10937000B9F1000F20D00B6804F1140C8E464FF0A9
:10938000000ABCF80050BEF802B009FB05B5AA44BB
:109390009BB243EA0A434EF8043B5CF8043BBEF838
:1093A00000501B0C09FB035303EB1A4367454FEABC
:1093B000134AE6D8019D4B5104319EE758F8043D0D
:1093C000002BA0D1013E9CE72DE9F843154612F091
:1093D000030206460F4607D0214C013A002354F8F9
:1093E0002220FFF7C0FE0746AD1035D0746A3CB9A5
:1093F0001020FFF757FEC0E9014470620460C460AA
:10940000D6F82480D8F808404CB940F27121304693
:10941000FFF735FF0023C8F80800044603604FF04B
:109420000009EB070AD5394622463046FFF730FFE0
:10943000394680463046FFF77FFE47466D100BD019
:10944000206838B9224621463046FFF721FF2060C8
:10945000C0F800900446E4E73846BDE8F88300BF52
:1094600020C002082DE9F0470C464968236903EB48
:109470006218A368074691464FEA621A08F101068E
:10948000B3423FDB3846FFF723FE0023054600F1D9
:10949000140100F110021846534536DB20692AEA10
:1094A000EA7A04F1140319F01F0901EB8A0103EBB6
:1094B000800C2ED0C9F1200E8A460022186800FACE
:1094C00009F002434AF8042B53F8042B9C4522FA76
:1094D0000EF2F3D8ACEB0403153B23F00303043383
:1094E00004F11500604588BF0423CA500AB108F191
:1094F0000206013E38462E612146FFF71DFE284632
:10950000BDE8F08701315B00BAE742F8040F013390
:10951000C2E7043953F8042B41F8042F9C45F9D8CD
:10952000E7E70A6903460069801A30B50DD11433A4
:10953000143103EB820401EB820154F8045D51F80D
:10954000042D954202D004D3012030BDA342F4D3B0
:10955000FBE74FF0FF30F8E72DE9F84F0C460646E1
:10956000114620461746FFF7DCFF051E08D12946A5
:109570003046FFF7ADFD0123C0E90435BDE8F88FA3
:10958000A4BF3B46274630467968A6BF1C46002547
:109590000125FFF79DFD3E69C560256907F11401AE
:1095A00004F1140900F1140E07F1100201EB860C0E
:1095B00009EB8505F246002759F8043B52F804BF31
:1095C0001FFA83F817FA8BF71B0CA7EB0808C3EBFD
:1095D0001B4303EB28431FFA88F81F144D4548EA44
:1095E00003434AF8043BE7D82B1B153B23F0030346
:1095F00004331534A54238BF0423194473449E46EE
:109600000D4665450ED30CF10302521A22F00302F7
:1096100003398C4538BF00221A4452F8043D7BB10F
:109620000661ABE755F8048B17FA88F4221402EBB5
:109630001842A4B244EA02444EF8044B1714E0E77F
:10964000013EEAE72DE9F34101211C46DDE9086509
:109650009046FFF73DFDC4F31303C4F30A540746D5
:109660002CBB0193B8F1000326D068460093FFF7A6
:10967000D8FD0099F0B1019AC0F1200302FA03F37A
:109680000B43C2407B610192019BBB61002B14BF65
:10969000022101213961C4B1A4F233440444C0F170
:1096A000350034602860384602B0BDE8F08143F4EC
:1096B0008013D6E77961E7E701A8FFF7B2FD019BC8
:1096C0007B61012139612030E5E707EB8103A0F2DE
:1096D000324030601869FFF784FDC0EB411129600A
:1096E000E1E738B502FB01F5294600F057F80446DA
:1096F00018B12A460021FEF70DFA204638BD0000B9
:1097000038B50546002945D051F8043C0C1F002B04
:10971000B8BFE41800F0BEF81F4A1368104633B90A
:10972000636014602846BDE8384000F0B9B8A34231
:109730000BD921686218934204BF1A685B686360A2
:1097400004BF521822600460ECE71A465B680BB154
:10975000A342FAD911685018A0420BD120680144E5
:10976000501883421160DDD118685B685360014472
:109770001160D7E702D90C232B60D3E720682118AA
:109780008B4204BF19685B68636004BF09182160DD
:109790005460C7E738BD00BFC40D0020F8B5CD1C2C
:1097A00025F0030508350C2D38BF0C25002D064685
:1097B00001DBA94203D90C2333600020F8BD00F07F
:1097C00069F821490A6814469CB9204F3B6823B9BF
:1097D0002146304600F03CF838602946304600F01B
:1097E00037F8431C23D10C233360304600F058F87F
:1097F000E3E723685B1B17D40B2B03D923601C44BE
:10980000256004E06368A2420CBF0B6053603046E1
:1098100000F046F804F10B00231D20F00700C21AE7
:10982000CCD01B1AA350C9E722466468CCE7C41CFD
:1098300024F00304A042E3D0211A304600F008F8D7
:109840000130DDD1CFE700BFC40D0020C80D0020DE
:1098500038B5064D0023044608462B6000F036F864
:10986000431C02D12B6803B1236038BDF45C002097
:1098700082B001B901A942B14BB113780B601278E3
:10988000101E18BF012002B070471046FBE76FF0B2
:109890000100F8E7014800F016B800BFFC5C0020AA
:1098A000014800F011B800BFFC5C002003460846E8
:1098B00041B1FF2A04D98A221A604FF0FF30704765
:1098C0000A7001207047704770470000044A05493C
:1098D0001368002B08BF0B461844106018467047E9
:1098E000CC0D0020907300200D48854620F010F923
:1098F0000C480D490D4A002302E0D458C4500433EB
:10990000C4188C42F9D30A4A0A4C002301E01360C0
:109910000432A242FBD3FEF7D9F8FDF76DFFFEE754
:1099200000FC002000000020A00D002030F1020803
:10993000A00D00209073002000F05AB80368074A79
:10994000934206D1DA69D20606D510221A6201F0D6
:10995000DBBA034A9342F5D0704700BF0080004055
:10996000003801404FF0B0434FF0FF319A6B9963DC
:10997000DA6BD9639A6B00229A63D86BDA63186C3E
:109980001964186C1A64586C5964586C5A64986A53
:109990009962986A9A62D86AD962D86ADA62186B50
:1099A0001963196B1A635A6C42F001025A645A6CBB
:1099B00022F001025A64D3F8902042F48032C3F8B6
:1099C0009020D3F8902022F48032C3F89020BFF387
:1099D0004F8F0549054BCA6802F4E0621343CB6020
:1099E000BFF34F8F00BFFDE700ED00E00400FA0574
:1099F0004FF0B0434FF0FF319A6B9963DA6BD96344
:109A00009A6B00229A63D86BDA63186C1964186C2D
:109A10001A64586C5964586C5A64986A9962986AC6
:109A20009A62D86AD962D86ADA62186B1963196BBC
:109A30001A635A6C42F001025A645A6C22F0010215
:109A40005A64D3F8902042F48032C3F89020D3F8BF
:109A5000902022F48032C3F89020FEE7FEE7FEE774
:109A6000FEE7704770470BF071BB000001480EF035
:109A7000B7BE00BF345F002001480FF090BB00BFAD
:109A8000E85C002001480FF073B800BF345F00208D
:109A900001480DF041B900BF6863002001480DF096
:109AA0003BB900BF6C5F002001480DF035B900BF25
:109AB000CC5F002001480DF02FB900BF7862002074
:109AC00010B5044C20460FF099FC2046BDE810402C
:109AD000FFF734BFD8620020704701200DF09EBA16
:109AE00002200DF09BBA04200DF098BA08200DF06A
:109AF00095BA10200DF092BA0E4BDA68920602D594
:109B000020200DF08BBADA68500601D54020F8E726
:109B1000DA68110601D58020F3E7DA68D20502D5AC
:109B20004FF48070EDE7DB689B0502D54FF40070C1
:109B3000E7E7704700080058134BDA68510503D572
:109B40004FF480600DF06ABADA68120502D54FF45E
:109B50000060F7E7DA68D00402D54FF48050F1E7EF
:109B6000DA68910402D54FF40050EBE7DA6852044A
:109B700002D54FF48040E5E7DB681B0402D54FF4C3
:109B80000040DFE7704700BF0008005810B5044CE4
:109B900020460FF033FC2046BDE81040FFF7CEBE54
:109BA000E861002001480DF0D7BB00BF1C61002018
:109BB00001480EF058B800BF1C61002001480CF0AD
:109BC00077BC00BF285E00204FF0B04382B0DA6C53
:109BD0000243DA64DB6C18400190019B02B07047CD
:109BE0001FB514284FF00003CDE902330C460CD802
:109BF000092812D90A380A280FD8DFE800F07B0EAE
:109C00000E0E0E820E0E74116D00FE2800F0838081
:109C1000FF2800F08280FD287AD06FF0030059E021
:109C20003F4A404B0193137843F0010313703E48C1
:109C30003E4A4FF00043C0E900233D4B04221B681D
:109C40008360426100230122C2614FF480510622E9
:109C50000383C0E90333C0E90933C0E90C128376FA
:109C600080F8203080F82C30836380F83C30C36467
:109C70000BF0A6FA08B100F0D7FE2B480BF048FE17
:109C800008B100F0D1FE0023274801A9CDE9023335
:109C90000BF018FC08B100F0C7FE23480BF06CFD78
:109CA00008B100F0C1FE0A211F480BF0ADFB1E48B1
:109CB0000BF010FE1C480BF002FC1E4B019A80B208
:109CC0009A42208004BF00EB4000208016480BF031
:109CD000B5FD002004B010BD114A174B0193137855
:109CE00043F00203A2E70E4A144B0193137843F0AA
:109CF00004039BE70A4A124B0193137843F00803CD
:109D000094E7074A0F4B0193137843F010038DE754
:109D10000D4B01938BE70D4BFBE7064BF9E700BFBB
:109D2000D00D002004000008045D00200024014044
:109D3000F0010020004000B80800000C10000010E6
:109D4000400000180008002C001000B0002000B4F3
:109D5000704770470128084A084B04D0022806D1F2
:109D60001070082201E0107010221A607047032161
:109D700011700022F9E700BFF5010020F00100207A
:109D8000014B1878704700BFF5010020014B18788F
:109D9000704700BFF401002010B5044686B01422BD
:109DA000002101A8FDF7B6FE22685E4B9A4240F002
:109DB0008E804FF0B0435C4C1A6E42F400721A660B
:109DC0001B6E03F400730093009B2378DA0708D519
:109DD000132000F079FAB0F1904F7AD10120FFF70B
:109DE000F3FE23789B0708D5142000F06DFAB0F13C
:109DF000904F76D10120FFF7E7FE2378580708D56A
:109E0000122000F061FAB0F1904F72D10120FFF7FB
:109E1000DBFE2378190708D50A2000F055FAB0F1C7
:109E2000904F6ED10120FFF7CFFE2378DA0608D5D8
:109E30000F2000F049FAB0F1904F6AD10120FFF7EE
:109E4000C3FE00234FF0030CCDE902C32378DB07E8
:109E500009D5132000F03DFA0190132000F034FAE8
:109E600001A90CF0B5FF2378980709D5142000F05C
:109E700030FA0190142000F027FA01A90CF0A8FF95
:109E80002378590709D5122000F023FA01901220F7
:109E900000F01AFA01A90CF09BFF23781A0709D5E4
:109EA0000A2000F016FA01900A2000F00DFA01A92C
:109EB0000CF08EFF2378DB0609D50F2000F009FA9D
:109EC00001900F2000F000FA01A90CF081FF06B00C
:109ED00010BD132000F0F8F9144B984281D10220F4
:109EE0007DE7142000F0F0F9104B984285D1022054
:109EF00081E7122000F0E8F90C4B984289D102204A
:109F000085E70A2000F0E0F9084B98428DD1022045
:109F100089E70F2000F0D8F9044B984291D1022034
:109F20008DE700BF00240140D00D00200004004850
:109F300038B50268324B9A4260D14FF0B042314C92
:109F4000136E23F4007313662378DD070ED51320F8
:109F500000F0BAF90546132000F0BBF90146284687
:109F60000CF0E2FF237823F0010323702378980795
:109F70000ED5142000F0A8F90546142000F0A9F928
:109F8000014628460CF0D0FF237823F0020323700B
:109F9000237859070ED5122000F096F905461220B5
:109FA00000F097F9014628460CF0BEFF237823F015
:109FB0000403237023781A070ED50A2000F084F9D1
:109FC00005460A2000F085F9014628460CF0ACFF52
:109FD000237823F0080323702378DB060ED50F20A7
:109FE00000F072F905460F2000F073F9014628468B
:109FF0000CF09AFF237823F01003237038BD00BFC4
:10A0000000240140D00D00200A4B00F11002C1785D
:10A010001970817859704178997010F8041BD970C3
:10A02000904203F10403F2D1034B10221A80002066
:10A03000704700BFD40D0020F60100202DE9F04F3D
:10A040003B4EDFF8F4C085B002AF044690469A4616
:10A05000384AF26000233046C6E900C3C6E9093336
:10A060003D8ED7F834B0B36089467361F3620BF06C
:10A0700047FE304A7A6008B100F0D6FC2C480BF05D
:10A0800062FE08B100F0D0FC2B480422C6E90002B1
:10A090000022B260002C39D1746100227B68244810
:10A0A000F3600121C6E90912F2620BF029FE08B142
:10A0B00000F0BAFC2B071DBF25F00F041034A4B22A
:10A0C0002C46A300073323F00703ADEB030D02AECC
:10A0D000224600213046FDF71DFD2A4651463046F6
:10A0E000FEF7E8FFFF23009311485B462246314606
:10A0F000B9F1000F14D10CF07DF870B90C480BF0D9
:10A1000022FE80B90C37BD46BDE8F08F012C0CBF94
:10A1100020224022C6E90482BFE76FF00600F1E783
:10A120000CF0F6F8E9E700F07FFC0020EAE700BF5A
:10A13000285E0020E40D00200018005821F00803DC
:10A14000102B01D0202911D10A4B00F11002C17847
:10A150001970817859704178997010F8041BD97082
:10A16000904203F10403F2D1002070476FF01F000A
:10A17000704700BFE40D002007B5CDE900120022B2
:10A18000034611461046FFF759FF03B05DF804FB84
:10A1900070B586B004460D4616460021102202A86E
:10A1A000FDF7B8FC074B08491A8802A8FEF782FFA2
:10A1B000CDE90056234602AA00210120FFF73EFF09
:10A1C00006B070BDF6010020D40D002070B586B039
:10A1D00004460D4616460021102202A8FDF79AFCFF
:10A1E000074B08491A8802A8FEF764FF0121CDE950
:10A1F0000056234602AA0846FFF720FF06B070BDAE
:10A20000F6010020D40D002008B5FFF797FFC0B27B
:10A2100008BD08B510230A461946FFF7ADFFC0B2C6
:10A2200008BD70B51446054618460E46FFF7ECFE0D
:10A2300023019BB2324619462846FFF7A9FFC0B258
:10A2400070BD70B51446054618460E46FFF7DCFE95
:10A2500023019BB2324619462846FFF7B7FFC0B22A
:10A2600070BD0000034B00221A70034B01221A70CC
:10A27000704700BFE071002064720020024B53F869
:10A28000203003B118477047F41500200022012345
:10A290000342D1B202F101020DD02F290ED8084B92
:10A2A000084800221A70082300F8313000EBC10082
:10A2B00041600AF0E3BE5B009BB2E9E7704700BF74
:10A2C000E071002074150020000900F59010800254
:10A2D000704700F00F030120984080B270470000E3
:10A2E0002F28F8B5054600F28280414E14224243E1
:10A2F00000F00F040123B018A340B35003294FF01E
:10A300000202C2602DD801292ED94FF48812426072
:10A310002846FFF7D9FFC76893FAA3F2B2FA82F290
:10A32000510003228A403A4093FAA3F3B3FA83F32D
:10A330005B0022FA03F3012B4FF014021ED0022B14
:10A340001CD0142101FB05610CF042FDD4B906209C
:10A35000224602210BF03AFB0620BDE8F8400BF044
:10A3600067BB0439012906D9142202FB05624FF4A8
:10A3700044115160CCE74FF40412C8E702FB0562B8
:10A380009360DEE7012C06D10720002202210BF0AA
:10A390001DFB0720E1E7022C06D108200022214600
:10A3A0000BF014FB0820D8E7032C06D1092000226B
:10A3B00002210BF00BFB0920CFE7042C06D10A2069
:10A3C000002202210BF002FB0A20C6E7053C042C08
:10A3D0004FF000024FF0020104D816200BF0F6FAFD
:10A3E0001620BAE729200BF0F1FA2920B5E7F8BDCD
:10A3F000F40D0020044B00F00F0053F820200AB9A0
:10A4000043F8201000207047F41500202DE9F84390
:10A41000174E184D184FDFF86480DFF86490002461
:10A420000F2C05DDA4F11203052B01D91C2C15D12D
:10A4300057F8243093B973682B60B3686B60F36886
:10A44000AB603369EB602B7C43B198F80010204679
:10A45000FFF746FF49462046FFF7CCFF0134302C7A
:10A4600006F1140605F11405DAD1BDE8F88300BF42
:10A47000F40D0020B4110020F4150020F801002094
:10A4800065A20008F8B5124E124D134F00240F2C90
:10A4900005DDA4F11203052B01D91C2C10D157F8AE
:10A4A00024306BB933686B607368AB60B368EB6082
:10A4B0002046F3682B61FFF707FF29460CF088FC64
:10A4C0000134302C06F1140605F11405DFD1F8BD76
:10A4D000B4110020F40D0020F415002000B58DB05B
:10A4E0002C22002101A8FDF715FB1748174B03602C
:10A4F0004FF080420023C0E90433C0E907238360A2
:10A5000083614FF4807343620EF0E8F908B100F004
:10A510008BFA0D480EF006FB08B100F085FA4FF0FB
:10A520007C5300220793084808924FF4807301A9D6
:10A53000029206920B930EF02DFA08B100F074FA15
:10A5400000200DB05DF804FB345F002000280040BF
:10A5500007B5074B0DF106001B699847BDF806309B
:10A560004FF47A7202FB0030002103B05DF804FB67
:10A57000B0BD02087047704708B50A480EF017FBD7
:10A58000002211460C200BF021FA0C200BF050FA9F
:10A5900000220D2011460BF019FABDE808400D20ED
:10A5A0000BF046BAFC0100207047000038B5054D9D
:10A5B000002415F8013B0BB1FFF7DEFF0134042C3A
:10A5C000F7D138BDB4160020BFF34F8F0549064BB5
:10A5D000CA6802F4E0621343CB60BFF34F8F00BF41
:10A5E000FDE700BF00ED00E00400FA0572B6EFF3EE
:10A5F000108303607047036883F3108862B6704766
:10A6000070470000084A03460021084811700422E0
:10A6100000F83320064A00EBC3000C2101FB0323A2
:10A6200043600AF02BBD00BFE0710020E01600205F
:10A6300044170020084A03460021084811700522EB
:10A6400000F83320064A00EBC3000C2101FB032372
:10A6500043600AF013BD00BFE0710020B81600206F
:10A660000817002083680BB140681847704700380E
:10A6700018BF0120704711F0BDBC000037B503467C
:10A680000C2410460E4A5C431519042B135598BF31
:10A690000C4AA96094BF52F823400024FFF7E7FF5B
:10A6A0004FF0FF31024600932046074B11F0ACFCFF
:10A6B000002814BF6FF00600002003B030BD00BFBB
:10A6C0004417002038C1020805A60008042898BFD6
:10A6D0000D4B70B598BF53F820400C4D4FF00C0354
:10A6E00003FB00F305EB030688BF0024E854726007
:10A6F000204611F075FD18B9204611F037FD08B15C
:10A700006FF0060070BD00BF38C10208441700207A
:10A71000042898BF0B4A08B5034698BF52F820009A
:10A72000094A4FF00C0101FB03234FF0000288BFE0
:10A7300000205A6011F0CAFC002814BF6FF0060018
:10A74000002008BD38C102084417002037B5034671
:10A750000C2410460E4A5C431519042B135598BF60
:10A760000C4AA96094BF52F823400024FFF77FFFF2
:10A770004FF0FF31024600932046074B11F044FC96
:10A78000002814BF6FF00600002003B030BD00BFEA
:10A79000081700204CC1020835A60008042898BFFD
:10A7A0000D4B70B598BF53F820400C4D4FF00C0383
:10A7B00003FB00F305EB030688BF0024E854726036
:10A7C000204611F00DFD18B9204611F0CFFC08B15C
:10A7D0006FF0060070BD00BF4CC1020808170020D2
:10A7E000042898BF0B4A08B5034698BF52F82000CA
:10A7F000094A4FF00C0101FB03234FF0000288BF10
:10A8000000205A6011F062FC002814BF6FF00600AF
:10A81000002008BD4CC102080817002008B5164BDF
:10A82000164A1A605A680AB9154A5A60002201216C
:10A83000C3E90221C3E90422C3E906221A620E48D1
:10A84000102283F842200CF079FC08B100F0ECF8FB
:10A85000094800210DF045FA08B100F0E5F8064876
:10A8600000210DF064FA08B100F0DEF8BDE8084000
:10A870004FF400100DF080BA1C6100200058004019
:10A880005C08700010B50446FFF7C8FF014B0122B9
:10A890001A5510BD8017002010B5044604480CF06E
:10A8A0009EFC08B100F0C0F8024B00221A5510BD02
:10A8B0001C6100208017002008B5164B9942164BEA
:10A8C00020D8164A5A601B6813B313480CF087FC53
:10A8D00011480CF033FC08B100F0A6F80E48002136
:10A8E0000DF0FFF908B100F09FF80B4800210DF0C2
:10A8F0001EFA08B100F098F8BDE808404FF40010C7
:10A900000DF03ABA064A914294BF064A064AD9E780
:10A9100008BD00BFA08601001C610020DB0A3010CA
:10A9200090D003009F0D70005C08700013B59DF877
:10A930001000002814BF4FF0007000200090490064
:10A940000A480CF065FC50B9084C20460DF0C4F9DB
:10A950002028FAD105480DF0C2F9042803D16FF080
:10A96000030002B010BD0020FBE700BF1C61002007
:10A9700013B54FF00070009049000A480CF09AFCA3
:10A9800050B9084C20460DF0A7F92028FAD1054807
:10A990000DF0A5F9042803D16FF0030002B010BD3B
:10A9A0000020FBE71C6100207047000038B5054D12
:10A9B000002415F8013B0BB1FFF730FF0134042CE4
:10A9C000F7D138BD80170020BFF34F8F0549064BE4
:10A9D000CA6802F4E0621343CB60BFF34F8F00BF3D
:10A9E000FDE700BF00ED00E00400FA054FF0B043C2
:10A9F00082B09A6C02439A649B6C18400190019B50
:10AA000002B0704710B5064C0649802220460FF070
:10AA10001FFA2268136843F01003136010BD00BFD3
:10AA2000E86100206861002008B5FFF7CDFF000055
:10AA3000012810B50BD1094C0949802220460FF09E
:10AA400007FA2268136843F01003136010BD022850
:10AA5000FCD1BDE81040FFF7D5BF00BFD862002091
:10AA6000C96300202DE9F04385B0012B9DF83050DB
:10AA70009DF8348014BF00274FF40057012D044681
:10AA80000E4639D0032D3AD0002D3BD00025013A97
:10AA9000D2B2022A38D85F4B53F82290012C65D1EC
:10AAA0000420FFF7A3FF2046FFF7A0FF0022114676
:10AAB0000E200AF08BFF0E200AF0BAFF564B5748C3
:10AAC00083F80180564B0561C0E900360C24002351
:10AAD000C0E90297C0E90543C0E907334362B8F112
:10AAE000000F17D0082383624FF4004383630FF0F5
:10AAF00029F9A0B1FFF768FF4FF4C065C7E74FF42D
:10AB00008065C4E7022A02D04FF00009C6E74FF083
:10AB10008059C3E7C0F828800FF0E4F8E9E7002186
:10AB20003E480FF071FA01460028E3D13B480FF090
:10AB30008FFA0028DED139480FF04BFA0028D9D11E
:10AB40000120FFF775FF4FF44013019A334800933B
:10AB500019460FF0CBF90028CCD14FF0B0429368E2
:10AB600043F40043936005B0BDE8F083022CFAD1B2
:10AB7000294B2C4C83F802800420FFF737FF01207B
:10AB8000FFF734FF002211460B200AF01FFF0B20B5
:10AB90000AF04EFF244B2561C4E900360C22002345
:10ABA0002046C4E90297C4E90523C4E90833A36237
:10ABB00063660FF097F8014600289BD120460FF0FE
:10ABC00023FA0146002895D120460FF041FA0028CB
:10ABD00090D120460FF0FDF900288BD1FFF712FF2E
:10ABE0004FF44013029304AB13E9060020460FF024
:10ABF0007DF900287FF47EAF0C4AD2F8803043F014
:10AC00008053C2F880302268936843F480039360D5
:10AC1000A3E700BF60C10208B41B0020D862002077
:10AC200000380140E8610020008000400008005822
:10AC30002DE9F7439DF828909DF82C40CDE900942C
:10AC400016461D4680460F460C24FFF70BFF074BA8
:10AC500004FB08F01C1801221A5467602672657202
:10AC600084F80A9003B0BDE8F08300BF901B002079
:10AC7000022810B5044605D107480EF021FB28B183
:10AC8000FFF7A2FE012801D10448F6E70C20044B8F
:10AC9000444300221A5510BDE8610020D86200200C
:10ACA000901B0020012870B50D461E4620D194B29D
:10ACB000144A5278013A012A14D813480EF065FD5F
:10ACC00022461148334629460EF07CFF04460E48C2
:10ACD0000EF081FD9CB1022C14BF6FF006006FF0E6
:10ACE000050070BD084822460EF06CFF0446F1E7EF
:10ACF000022802D1054892B2F6E70020F1E720468B
:10AD0000EFE700BFB41B0020D8620020E8610020FC
:10AD1000012802D1044800F03DBA022801D10348BD
:10AD2000F9E76FF00600704760020020740200200F
:10AD3000012807B507D108480DF1070100F070FAA6
:10AD400003B05DF804FB022803D104480DF10701AC
:10AD5000F4E76FF00600F3E76002002074020020C1
:10AD6000012802D1034800F052BA022801D102485A
:10AD7000F9E770476002002074020020012802D128
:10AD8000044800F0ABB9022801D10348F9E76FF09D
:10AD9000060070476002002074020020F8B5224DC2
:10ADA000224F00240C23224A63439B5CCBB1022C2C
:10ADB0001BD1204E3368DA69D103FCD4DA69520220
:10ADC000FCD51C480FF0D9F833681A4810221A62D3
:10ADD0001A6822F010021A600EF090FAF06F0BF071
:10ADE00091FE0134032CDDD1F8BD012CF9D10823EB
:10ADF0002B624FF480132B6255E8003F43F00203AF
:10AE000045E80032002AF7D157E8003F43F48003B9
:10AE100047E80032002AF7D1074AD2F8803043F0E1
:10AE20008063C2F88030DCE7003801400838014018
:10AE3000901B0020E86100200008005873B50B4CFF
:10AE40000B4E4FF0FF35012D0BD923784BB13378E2
:10AE50000193A37A0093227A637A61680020FFF756
:10AE600001FE0135022DEED102B070BD901B002015
:10AE7000B41B002002681D4B9A4270B5044615D1E0
:10AE80000EF03CFA1A4E002516F8011B022001357F
:10AE90000AF08CF8802DF7D1154916482A4600F0A3
:10AEA0002CF913492A4620460EF0D2FF2268124B95
:10AEB0009A4216D120460EF021FA104E002516F8BF
:10AEC000011B012001350AF071F8802DF7D10B49E3
:10AED0000B482A4600F011F908492A4620460EF090
:10AEE000B7FFBDE8704007480AF0C8B800800040CE
:10AEF000686100207402002000380140C96300200E
:10AF000060020020881B0020F8B502682B4B9A4293
:10AF100004461DD10EF0F2F9294B2A4F1B685D68DB
:10AF2000C5F18005ADB20026B54239DC2549264879
:10AF30002A4600F0E2F88022224920460EF088FFDF
:10AF4000224B1A78012A03D100221A7009F024FE3C
:10AF500022681F4B9A421ED120460EF0CFF91D4B9E
:10AF60001D4F1B685D68C5F18005ADB20026B54276
:10AF70001DDC194919482A4600F0BFF880221649FD
:10AF800020460EF065FF114B1A78012A03D10022EA
:10AF90001A7009F001FEBDE8F84011480AF06EB8D9
:10AFA00017F8011B02200AF001F80136BCE717F878
:10AFB000011B012009F0FAFF0136D8E700800040AC
:10AFC000686300206861002074020020841700205C
:10AFD0000038014078620020C96300206002002030
:10AFE000881B002073B5314B00261E7003685A6A17
:10AFF0008DF807202E4A9342054619D12D482E4C34
:10B000000EF0D1FF2D4926621523C4E90013204616
:10B010008023C4E90266C4E90436C4E906660BF07D
:10B02000FFFC08B1FFF7D0FCEC67A562FFF7EAFC74
:10B030002A68234B9A421AD12248234C0EF0B3FFC0
:10B04000224A1123C4E90023204600238022C4E9B8
:10B050000233C4E90423C4E9063323620BF0E0FCA5
:10B060000028DFD1EC670120A562FFF7E1FC2C6826
:10B070000F4B9C420DD19DF80710022009F096FF5E
:10B080002B68A34205D1124801220DF1070100F0FF
:10B0900034F8104809F0F2FF0F4B1A781AB9012260
:10B0A0001A7009F071FD02B070BD00BFE0710020A0
:10B0B00000800040E8610020686300200800024032
:10B0C00000380140D862002078620020440002402D
:10B0D00074020020881B002084170020C2680369C6
:10B0E0009A4282BF40681B180133981A704708B50E
:10B0F0004168FFF7F3FF081A08BD2DE9F74304463E
:10B1000001A81646884609F0C3FF2046FFF7EFFF67
:10B11000864228BF06462046FFF7E9FFE368256917
:10B12000A268AB429CBF636801335D1B8146236804
:10B130002069AE4202FB003013D872434146FDF74E
:10B14000B9FF236962683344934296BF23690023A1
:10B150009B19236101A809F09DFF304603B0BDE8AB
:10B16000F08305FB02F73A464146FDF7A3FFA268CC
:10B170002068751B6A4308EB0701FDF79BFF4E45EE
:10B180002561E7D923696268934234BF0133002304
:10B19000E360DFE72DE9F341044601A8164688463F
:10B1A00009F076FF2046FFF799FFE768E568236915
:10B1B000A2682168864228BF06469D4284BF636814
:10B1C00001335D1BAE4202FB071110D872434046AB
:10B1D000FDF770FF62683744974288BF0027E76039
:10B1E00001A809F057FF304602B0BDE8F08105FB29
:10B1F00002F73A464046FDF75DFFA2682168751BDD
:10B200006A4308EB0700FDF755FFE560E8E710B576
:10B21000044614220021FCF77DFC2369E36010BD85
:10B2200003460846D9681A69914210B523D09A6836
:10B23000DC681968531E072B18D8DFE803F00408F0
:10B24000170C171717100B5D0370002010BD31F895
:10B2500014300380F9E751F824300360F5E701EB7F
:10B26000C401D1E90023C0E90023EEE704FB021189
:10B27000FDF720FFE9E76FF00E00E7E7704710B534
:10B2800086B00A2301A88DF8043013F08FFD044620
:10B2900001A813F08BFD201E18BF0120404206B00C
:10B2A00010BD10B513F086F80128044604D030B95B
:10B2B00009F000FF204610BD6FF00500FBE76FF0BE
:10B2C0000600F8E738B50B78013B044615461A48E6
:10B2D000092B2CD8DFE803F0052B2B1B23272B2B66
:10B2E0002B1F09F019FD154809F016FD144809F047
:10B2F00013FD144B144853F8241009F00DFD0B2CCA
:10B3000019D129461148BDE8384009F005BD09F0BA
:10B3100003FD0F48E8E709F0FFFC0E48E4E709F0F9
:10B32000FBFC0D48E0E709F0F7FC0C48DCE709F00E
:10B33000F3FC0B48D8E738BD6CC10208A2C1020873
:10B34000D7C1020870C9020815C3020827C3020842
:10B350000CC2020841C2020876C20208ABC202084F
:10B36000E0C2020838B50B78012B0446154607D019
:10B37000032B1CD003BB134809F0CEFC124803E09A
:10B38000104809F0C9FC114809F0C6FC104809F042
:10B39000C3FC104B104853F8241009F0BDFC0B2CD3
:10B3A0000FD129460D48BDE8384009F0B5BC054825
:10B3B00009F0B2FC0A48E7E7024809F0ADFC094889
:10B3C000E2E738BD3FC30208AAC3020875C30208FA
:10B3D000D7C1020870C9020815C3020827C30208B2
:10B3E000DFC3020814C4020870B5474E8AB0044691
:10B3F000052556F8043B1BB11B6A0BB12046984744
:10B40000013D15F0FF05F4D123780B2B0FD00F2B46
:10B410000BD13E4809F080FC3D4B8DF8045001A84B
:10B420001D708DF8085013F00BF90AB070BD6378E9
:10B430000E2B63D1374809F06FFC354B1A78042A7C
:10B440001BD0022628461E7009F034FE32492A46D7
:10B45000284609F02BFEB8B91FF0DCFF434203F089
:10B460001F0300F01F004FF47A7158BF584200FBD1
:10B4700001113246284609F01BFE637D032B1FD8BD
:10B48000DFE803F00B24272A4FF42571234809F045
:10B4900043FC284609F00EFEEFE7214A0023138003
:10B4A000E37D217E1B0243EA0143A17D0B435360F0
:10B4B000A37EE17E1B0243EA0143617E0B4393605E
:10B4C000D4E90101174B83E80300AEE7144A0123D6
:10B4D000E5E7134A0223E2E7E37D217E104A1B02DF
:10B4E00043EA0143A17D0B43D360A37EE17E1B02AF
:10B4F00043EA0143617E0B431361E1E70F2BDFD188
:10B50000094809F009FCDBE7AC1C002049C402082B
:10B51000101D002054C4020801BD000861C40208C7
:10B52000F41C0020081D002071C4020870B5164BE1
:10B53000164A1B680446407860B92179117003B13E
:10B5400098472378012B1CD123792BB1104809F09F
:10B55000E3FB05E00021F1E761780E4809F0DCFB30
:10B56000002002F041F80C4E052556F8043B1BB1B3
:10B570005B690BB120469847013D15F0FF05F4D1FA
:10B5800070BD0648E3E700BF441F0020171E0020DF
:10B590007EC4020897C40208AC1C0020B8C402088C
:10B5A00008F0A0B908F0C2B908F038BA08B51DF023
:10B5B000BBFF08BD08F090BA072801D808F092BA7E
:10B5C0006FF00200704708F099BA08F09DBA0000C9
:10B5D000014B1878704700BF171E002008F052B9C1
:10B5E0007FB5054608F04EF9431EDBB2012B044639
:10B5F00003D900F0FD03082B1DD101A808F054F970
:10B60000002201A91346012011F8016B1EB100FAB6
:10B6100002F633439BB201320C2AF5D104F0FD024D
:10B62000082A01D0012C02D123F480739BB22B8015
:10B63000002004B070BD6FF00200FAE72DE9F04180
:10B640008EB080460F4608F01DF94B4B0193431E08
:10B65000DBB2002402AE012BC6E901440546029488
:10B6600004D900F0FD03082B40F08380FFF719FE9A
:10B670000446002872D1B8F800302BB9012D51D101
:10B6800040F2FF13A8F8003000230293C6E901330B
:10B69000B8F8000040FA03F1C907DAB210D50DF18D
:10B6A000380C02F0FE0102F0010261440CEB420290
:10B6B00031F830CC32F8342C42EA0C0221F8302C2C
:10B6C00001330C2BE6D105F0FD03082B01D0012D31
:10B6D0000FD1BDF81030002203F47F43ADF81030D5
:10B6E00011464FF0010CD5B2072D27D909B1ADF89D
:10B6F0001030232305A88DF81430069612F0A0FF11
:10B70000054660B9242305A88DF81430069612F07A
:10B7100097FF08F0A9FBE0B912F044FE10B36FF0F8
:10B7200006041BE005F0FD03082B04BFFF23A8F867
:10B730000030022DA8D140F6FF73A3E740FA02F5CE
:10B74000ED0741BF0CFA02F10B439BB2012101321C
:10B75000C9E7284608F08EFB0028DDD020460EB051
:10B76000BDE8F081002FF9D0304608F0A9F8044672
:10B77000F4E76FF00204F1E7FF0000FF08B508F0FE
:10B78000CFF9C0B208BD022808B503D808F0CEF939
:10B79000002008BD6FF00600FBE708F0D3B900B544
:10B7A0008BB0012301A88DF8043012F06FFE38B978
:10B7B0009DF80800003818BF01200BB05DF804FBAD
:10B7C0000020FAE730B58BB005460C4608F0BAF910
:10B7D00028B92146284608F0D5F80BB030BD0F2C0B
:10B7E00002D86FF00600F8E7FFF7D9FF30B901463D
:10B7F00010222846FCF78EF90020EEE70F2301A85F
:10B800008DF8043012F042FE0028EAD1029B03F1C9
:10B81000100253F8041B45F8041B9342F9D1EBE7DF
:10B8200030B58BB004460D4608F08CF928B929468E
:10B83000204608F0D3F80BB030BD032D02D86FF0CE
:10B840000600F8E7FFF7ABFF08B92060F3E707232E
:10B8500001A88DF8043012F019FE0028EFD1029BE8
:10B860001BBA2360E7E730B58BB004460D4608F0FD
:10B8700069F928B92946204608F0F4F80BB030BD24
:10B88000032D02D86FF00600F8E7FFF788FF08B92C
:10B890002060F3E7062301A88DF8043012F0F6FDCE
:10B8A0000028EFD1029B2360E8E730B58BB0054656
:10B8B0000C4608F047F928B92146284608F0E0F878
:10B8C0000BB030BD0F2C02D86FF00600F8E7FFF781
:10B8D00066FF30B9014610222846FCF71BF900200C
:10B8E000EEE70E2301A88DF8043012F0CFFD0028FA
:10B8F000EAD1029B03F1100253F8041B45F8041B24
:10B900009342F9D1EBE708F02FB908F03FB908B539
:10B9100008F0CCFB003818BF012008BD38B50C4634
:10B92000054613F0A9FB24B12846BDE8384008F0CD
:10B93000B1BB204638BD00B58BB02C2301A88DF8D3
:10B94000043012F0A3FD9DF808000BB05DF804FB75
:10B9500008F052B908F062B908F084B900B58BB0AC
:10B9600008F0F0F801280DD1FFF719FF50B1272397
:10B9700001A88DF8043012F089FD00B902980BB0CF
:10B980005DF804FB08F080F9F9E708F08FB908F0DA
:10B990009FB908F0C1B908F0C5B91FB52F238DF8BC
:10B9A000083007F06FFF02A915F046FB05B05DF8FF
:10B9B00004FB1FB531238DF8083007F063FF02A99F
:10B9C00015F03AFB05B05DF804FB0000014B186868
:10B9D000704700BF081D0020014BB3F900007047FD
:10B9E000381F0020014B93F900007047481F0020CA
:10B9F00010B590B0044605A810F0E0F9059807A925
:10BA0000123810F061FA0C9B094903F26C7303932E
:10BA10000A9B02930B9B01330193079B00932046E3
:10BA2000DDE908321FF02AFD002010B010BD00BF74
:10BA3000C7C4020800B58BB01F2301A88DF80430DD
:10BA400012F024FD18B902980BB05DF804FB6FF0FA
:10BA50000600F9E700B58BB01F2301A88DF804306C
:10BA600012F014FD20B99DF80C000BB05DF804FB3A
:10BA7000F920FAE708F03EB9022801D808F040B9E9
:10BA80006FF00200704700002DE9F04198B00D46BC
:10BA900002A981E80C00804608F08AF80746FFF703
:10BAA0007EFE0646002800F0068111F055FA044695
:10BAB00010B16FF0050094E008F068F8022840F03B
:10BAC00093808DF840000FA88DF83C4012F0B8FD2F
:10BAD0008DF8227008F00EF960B108F00BF901281A
